{
  "contractName": "KeyRegistry",
  "abi": [
    {
      "anonymous": false,
      "inputs": [
        {
          "indexed": true,
          "internalType": "bytes32",
          "name": "userId",
          "type": "bytes32"
        },
        {
          "indexed": true,
          "internalType": "address",
          "name": "key",
          "type": "address"
        }
      ],
      "name": "KeyAdded",
      "type": "event"
    },
    {
      "anonymous": false,
      "inputs": [
        {
          "indexed": true,
          "internalType": "bytes32",
          "name": "userId",
          "type": "bytes32"
        },
        {
          "indexed": true,
          "internalType": "address",
          "name": "key",
          "type": "address"
        }
      ],
      "name": "KeyRemoved",
      "type": "event"
    },
    {
      "anonymous": false,
      "inputs": [
        {
          "indexed": true,
          "internalType": "bytes32",
          "name": "userId",
          "type": "bytes32"
        },
        {
          "indexed": true,
          "internalType": "address",
          "name": "newKey",
          "type": "address"
        }
      ],
      "name": "RecoveryExecuted",
      "type": "event"
    },
    {
      "anonymous": false,
      "inputs": [
        {
          "indexed": true,
          "internalType": "bytes32",
          "name": "userId",
          "type": "bytes32"
        },
        {
          "indexed": true,
          "internalType": "address",
          "name": "newKey",
          "type": "address"
        },
        {
          "indexed": true,
          "internalType": "address",
          "name": "guardian",
          "type": "address"
        }
      ],
      "name": "RecoveryProposed",
      "type": "event"
    },
    {
      "anonymous": false,
      "inputs": [
        {
          "indexed": true,
          "internalType": "bytes32",
          "name": "userId",
          "type": "bytes32"
        },
        {
          "indexed": true,
          "internalType": "address",
          "name": "key",
          "type": "address"
        }
      ],
      "name": "UserRegistered",
      "type": "event"
    },
    {
      "inputs": [
        {
          "internalType": "bytes32",
          "name": "",
          "type": "bytes32"
        }
      ],
      "name": "keyCount",
      "outputs": [
        {
          "internalType": "uint256",
          "name": "",
          "type": "uint256"
        }
      ],
      "stateMutability": "view",
      "type": "function",
      "constant": true
    },
    {
      "inputs": [
        {
          "internalType": "bytes32",
          "name": "userId",
          "type": "bytes32"
        },
        {
          "internalType": "address",
          "name": "key",
          "type": "address"
        }
      ],
      "name": "isKey",
      "outputs": [
        {
          "internalType": "bool",
          "name": "",
          "type": "bool"
        }
      ],
      "stateMutability": "view",
      "type": "function",
      "constant": true
    },
    {
      "inputs": [
        {
          "internalType": "bytes32",
          "name": "userId",
          "type": "bytes32"
        },
        {
          "internalType": "address",
          "name": "initialKey",
          "type": "address"
        },
        {
          "internalType": "address[]",
          "name": "guardians",
          "type": "address[]"
        },
        {
          "internalType": "uint8",
          "name": "threshold",
          "type": "uint8"
        }
      ],
      "name": "register",
      "outputs": [],
      "stateMutability": "nonpayable",
      "type": "function"
    },
    {
      "inputs": [
        {
          "internalType": "bytes32",
          "name": "userId",
          "type": "bytes32"
        },
        {
          "internalType": "address",
          "name": "newKey",
          "type": "address"
        }
      ],
      "name": "addKey",
      "outputs": [],
      "stateMutability": "nonpayable",
      "type": "function"
    },
    {
      "inputs": [
        {
          "internalType": "bytes32",
          "name": "userId",
          "type": "bytes32"
        },
        {
          "internalType": "address",
          "name": "keyToRemove",
          "type": "address"
        }
      ],
      "name": "removeKey",
      "outputs": [],
      "stateMutability": "nonpayable",
      "type": "function"
    },
    {
      "inputs": [
        {
          "internalType": "bytes32",
          "name": "userId",
          "type": "bytes32"
        },
        {
          "internalType": "address",
          "name": "oldKey",
          "type": "address"
        },
        {
          "internalType": "address",
          "name": "newKey",
          "type": "address"
        }
      ],
      "name": "rotateKey",
      "outputs": [],
      "stateMutability": "nonpayable",
      "type": "function"
    },
    {
      "inputs": [
        {
          "internalType": "bytes32",
          "name": "userId",
          "type": "bytes32"
        },
        {
          "internalType": "address",
          "name": "newKey",
          "type": "address"
        }
      ],
      "name": "proposeRecovery",
      "outputs": [],
      "stateMutability": "nonpayable",
      "type": "function"
    },
    {
      "inputs": [
        {
          "internalType": "bytes32",
          "name": "userId",
          "type": "bytes32"
        },
        {
          "internalType": "address",
          "name": "newKey",
          "type": "address"
        }
      ],
      "name": "executeRecovery",
      "outputs": [],
      "stateMutability": "nonpayable",
      "type": "function"
    }
  ],
  "bytecode": "0x608060405234801561001057600080fd5b50610c79806100206000396000f3fe608060405234801561001057600080fd5b50600436106100885760003560e01c806372e6c7ec1161005b57806372e6c7ec146100fb578063c208b3ff1461010e578063d50c18ae14610121578063d92b62371461014457600080fd5b8063058d18771461008d5780630df71b0b146100a25780634422cf0b146100b55780635b8a813f146100e8575b600080fd5b6100a061009b366004610a5b565b610157565b005b6100a06100b0366004610a5b565b6102e2565b6100d56100c3366004610a87565b60016020526000908152604090205481565b6040519081526020015b60405180910390f35b6100a06100f6366004610a5b565b61045a565b6100a0610109366004610a5b565b61057c565b6100a061011c366004610aa0565b6106e4565b61013461012f366004610a5b565b61085f565b60405190151581526020016100df565b6100a0610152366004610b4b565b61088a565b60008281526002602052604090205460ff16806101b45760405162461bcd60e51b8152602060048201526016602482015275139bc81c9958dbdd995c9e4818dbdb999a59dd5c995960521b60448201526064015b60405180910390fd5b60008381526004602090815260408083206001600160a01b038616845290915290205460ff821611156102205760405162461bcd60e51b81526020600482015260146024820152734e6f7420656e6f75676820617070726f76616c7360601b60448201526064016101ab565b6000838152600160205260409020546102715760405162461bcd60e51b8152602060048201526013602482015272155cd95c881b9bdd081c9959da5cdd195c9959606a1b60448201526064016101ab565b60008381526001602081815260408084208481558483528185206001600160a01b038816808752908452828620805460ff19168617905588865292849052929092559051909185917fe0467ef4a5103f5cdecf158449b313743f9e40a6b9b817614aed765c42a98df29190a3505050565b600082815260208181526040808320338452909152902054829060ff1661031b5760405162461bcd60e51b81526004016101ab90610b87565b6000838152602081815260408083206001600160a01b038616845290915290205460ff166103775760405162461bcd60e51b81526020600482015260096024820152684e6f742061206b657960b81b60448201526064016101ab565b600083815260016020819052604090912054116103d65760405162461bcd60e51b815260206004820152601760248201527f4174206c656173742031206b657920726571756972656400000000000000000060448201526064016101ab565b6000838152602081815260408083206001600160a01b03861684528252808320805460ff19169055858352600191829052822080549192909161041a908490610bcc565b90915550506040516001600160a01b0383169084907fedf4ef21716214d59484d75705f434b78394f616891c4567c9ad803557657b3290600090a3505050565b600082815260208181526040808320338452909152902054829060ff166104935760405162461bcd60e51b81526004016101ab90610b87565b6000838152602081815260408083206001600160a01b038616845290915290205460ff16156104f45760405162461bcd60e51b815260206004820152600d60248201526c416c72656164792061206b657960981b60448201526064016101ab565b6000838152602081815260408083206001600160a01b03861684528252808320805460ff1916600190811790915586845291829052822080549192909161053c908490610bdf565b90915550506040516001600160a01b0383169084907fbd64680c965c9b28ab14056bd0ccefa46e65fc159a3f3e2d3cc2b5c80c79b09390600090a3505050565b600082815260026020908152604080832033845260010190915290205460ff166105d95760405162461bcd60e51b815260206004820152600e60248201526d2737ba10309033bab0b93234b0b760911b60448201526064016101ab565b60008281526003602090815260408083206001600160a01b0385168452825280832033845290915290205460ff16156106475760405162461bcd60e51b815260206004820152601060248201526f105b1c9958591e48185c1c1c9bdd995960821b60448201526064016101ab565b60008281526003602090815260408083206001600160a01b0385168085529083528184203385528352818420805460ff1916600190811790915586855260048452828520918552925282208054919290916106a3908490610bdf565b909155505060405133906001600160a01b0383169084907fcc1f83a0813db15d87b9177bd3d431a378db51aadc3e05903af192afa1b7364290600090a45050565b600085815260016020526040902054156107355760405162461bcd60e51b8152602060048201526012602482015271105b1c9958591e481c9959da5cdd195c995960721b60448201526064016101ab565b60006001600160a01b0385161561074c578461074e565b335b6000878152602081815260408083206001600160a01b03851684528252808320805460ff191660019081179091558a8452918290528220559091505b83811015610808576000878152600260205260408120600191908201908787858181106107b9576107b9610bf2565b90506020020160208101906107ce9190610c08565b6001600160a01b031681526020810191909152604001600020805460ff19169115159190911790558061080081610c2a565b91505061078a565b50600086815260026020526040808220805460ff191660ff8616179055516001600160a01b0383169188917ff62ba47fe3ff610889160f02571396e86e21b7aadcbde2719192e206853b331f9190a3505050505050565b6000828152602081815260408083206001600160a01b038516845290915290205460ff165b92915050565b600083815260208181526040808320338452909152902054839060ff166108c35760405162461bcd60e51b81526004016101ab90610b87565b6000848152602081815260408083206001600160a01b038716845290915290205460ff166109275760405162461bcd60e51b815260206004820152601160248201527013db19081ad95e481b9bdd08199bdd5b99607a1b60448201526064016101ab565b6000848152602081815260408083206001600160a01b038616845290915290205460ff16156109985760405162461bcd60e51b815260206004820152601a60248201527f4e6577206b657920616c726561647920617574686f72697a656400000000000060448201526064016101ab565b6000848152602081815260408083206001600160a01b0387811680865291909352818420805460ff199081169091559286168452818420805490931660011790925551909186917fedf4ef21716214d59484d75705f434b78394f616891c4567c9ad803557657b329190a36040516001600160a01b0383169085907fbd64680c965c9b28ab14056bd0ccefa46e65fc159a3f3e2d3cc2b5c80c79b09390600090a350505050565b80356001600160a01b0381168114610a5657600080fd5b919050565b60008060408385031215610a6e57600080fd5b82359150610a7e60208401610a3f565b90509250929050565b600060208284031215610a9957600080fd5b5035919050565b600080600080600060808688031215610ab857600080fd5b85359450610ac860208701610a3f565b9350604086013567ffffffffffffffff80821115610ae557600080fd5b818801915088601f830112610af957600080fd5b813581811115610b0857600080fd5b8960208260051b8501011115610b1d57600080fd5b602083019550809450505050606086013560ff81168114610b3d57600080fd5b809150509295509295909350565b600080600060608486031215610b6057600080fd5b83359250610b7060208501610a3f565b9150610b7e60408501610a3f565b90509250925092565b6020808252601590820152744e6f7420616e20617574686f72697a6564206b657960581b604082015260600190565b634e487b7160e01b600052601160045260246000fd5b8181038181111561088457610884610bb6565b8082018082111561088457610884610bb6565b634e487b7160e01b600052603260045260246000fd5b600060208284031215610c1a57600080fd5b610c2382610a3f565b9392505050565b600060018201610c3c57610c3c610bb6565b506001019056fea26469706673582212203aa68ad23ee5984f33940fa47d99c70b5eb53a3ce8b3be5e909c5b4f26cc449964736f6c63430008150033",
  "immutableReferences": {},
  "source": "// SPDX-License-Identifier: MIT\r\npragma solidity ^0.8.20;\r\n\r\n/**\r\n * Minimal on-chain key registry:\r\n * - userId (bytes32) -> set of authorized keys (addresses)\r\n * - register initial key, add/remove/rotate keys\r\n * - optional guardian-based recovery (threshold approvals)\r\n *\r\n * Simplicity > perfection for demo. Good enough for assignment and a smooth demo.\r\n */\r\ncontract KeyRegistry {\r\n    event UserRegistered(bytes32 indexed userId, address indexed key);\r\n    event KeyAdded(bytes32 indexed userId, address indexed key);\r\n    event KeyRemoved(bytes32 indexed userId, address indexed key);\r\n    event RecoveryProposed(bytes32 indexed userId, address indexed newKey, address indexed guardian);\r\n    event RecoveryExecuted(bytes32 indexed userId, address indexed newKey);\r\n\r\n    struct RecoveryCfg {\r\n        uint8 threshold;\r\n        mapping(address => bool) guardian;\r\n    }\r\n\r\n    mapping(bytes32 => mapping(address => bool)) private _isKey; // userId => key => bool\r\n    mapping(bytes32 => uint256) public keyCount;\r\n    mapping(bytes32 => RecoveryCfg) private _recoveryCfg;\r\n\r\n    // userId => newKey => guardian => approved?\r\n    mapping(bytes32 => mapping(address => mapping(address => bool))) private _approved;\r\n    // userId => newKey => approvals\r\n    mapping(bytes32 => mapping(address => uint256)) private _approvalCount;\r\n\r\n    modifier onlyKey(bytes32 userId) {\r\n        require(_isKey[userId][msg.sender], \"Not an authorized key\");\r\n        _;\r\n    }\r\n\r\n    function isKey(bytes32 userId, address key) external view returns (bool) {\r\n        return _isKey[userId][key];\r\n    }\r\n\r\n    function register(\r\n        bytes32 userId,\r\n        address initialKey,\r\n        address[] calldata guardians,\r\n        uint8 threshold\r\n    ) external {\r\n        require(keyCount[userId] == 0, \"Already registered\");\r\n        address init = (initialKey == address(0)) ? msg.sender : initialKey;\r\n        _isKey[userId][init] = true;\r\n        keyCount[userId] = 1;\r\n\r\n        for (uint i = 0; i < guardians.length; i++) {\r\n            _recoveryCfg[userId].guardian[guardians[i]] = true;\r\n        }\r\n        _recoveryCfg[userId].threshold = threshold;\r\n\r\n        emit UserRegistered(userId, init);\r\n    }\r\n\r\n    function addKey(bytes32 userId, address newKey) external onlyKey(userId) {\r\n        require(!_isKey[userId][newKey], \"Already a key\");\r\n        _isKey[userId][newKey] = true;\r\n        keyCount[userId] += 1;\r\n        emit KeyAdded(userId, newKey);\r\n    }\r\n\r\n    function removeKey(bytes32 userId, address keyToRemove) external onlyKey(userId) {\r\n        require(_isKey[userId][keyToRemove], \"Not a key\");\r\n        require(keyCount[userId] > 1, \"At least 1 key required\");\r\n        _isKey[userId][keyToRemove] = false;\r\n        keyCount[userId] -= 1;\r\n        emit KeyRemoved(userId, keyToRemove);\r\n    }\r\n\r\n    function rotateKey(bytes32 userId, address oldKey, address newKey) external onlyKey(userId) {\r\n        require(_isKey[userId][oldKey], \"Old key not found\");\r\n        require(!_isKey[userId][newKey], \"New key already authorized\");\r\n        _isKey[userId][oldKey] = false;\r\n        _isKey[userId][newKey] = true;\r\n        emit KeyRemoved(userId, oldKey);\r\n        emit KeyAdded(userId, newKey);\r\n    }\r\n\r\n    // ---- Social recovery ----\r\n    function proposeRecovery(bytes32 userId, address newKey) external {\r\n        require(_recoveryCfg[userId].guardian[msg.sender], \"Not a guardian\");\r\n        require(!_approved[userId][newKey][msg.sender], \"Already approved\");\r\n        _approved[userId][newKey][msg.sender] = true;\r\n        _approvalCount[userId][newKey] += 1;\r\n        emit RecoveryProposed(userId, newKey, msg.sender);\r\n    }\r\n\r\n    function executeRecovery(bytes32 userId, address newKey) external {\r\n        uint8 threshold = _recoveryCfg[userId].threshold;\r\n        require(threshold > 0, \"No recovery configured\");\r\n        require(_approvalCount[userId][newKey] >= threshold, \"Not enough approvals\");\r\n        require(keyCount[userId] > 0, \"User not registered\");\r\n\r\n        // Demo reset: clear count and set only newKey.\r\n        // (In prod, track an array to actually iterate and revoke.)\r\n        keyCount[userId] = 0;\r\n        _isKey[userId][newKey] = true;\r\n        keyCount[userId] = 1;\r\n\r\n        emit RecoveryExecuted(userId, newKey);\r\n    }\r\n}\r\n",
  "sourcePath": "D:\\Blockchain\\Project\\passwordless-auth\\contracts\\contracts\\KeyRegistry.sol",
  "compiler": {
    "name": "solc",
    "version": "0.8.21+commit.d9974bed.Emscripten.clang"
  },
  "schemaVersion": "3.4.16",
  "updatedAt": "2025-08-18T03:37:55.692Z",
  "networkType": "ethereum",
  "devdoc": {
    "kind": "dev",
    "methods": {},
    "version": 1
  },
  "userdoc": {
    "kind": "user",
    "methods": {},
    "notice": "Minimal on-chain key registry: - userId (bytes32) -> set of authorized keys (addresses) - register initial key, add/remove/rotate keys - optional guardian-based recovery (threshold approvals) Simplicity > perfection for demo. Good enough for assignment and a smooth demo.",
    "version": 1
  }
}